{
  "_format": "hh-sol-artifact-1",
  "contractName": "PairFlash",
  "sourceName": "contracts/examples/PairFlash.sol",
  "abi": [
    {
      "inputs": [
        {
          "internalType": "contract ISwapRouter",
          "name": "_swapRouter",
          "type": "address"
        },
        {
          "internalType": "address",
          "name": "_factory",
          "type": "address"
        },
        {
          "internalType": "address",
          "name": "_WETH",
          "type": "address"
        }
      ],
      "stateMutability": "nonpayable",
      "type": "constructor"
    },
    {
      "inputs": [],
      "name": "WETH",
      "outputs": [
        {
          "internalType": "address",
          "name": "",
          "type": "address"
        }
      ],
      "stateMutability": "view",
      "type": "function"
    },
    {
      "inputs": [],
      "name": "factory",
      "outputs": [
        {
          "internalType": "address",
          "name": "",
          "type": "address"
        }
      ],
      "stateMutability": "view",
      "type": "function"
    },
    {
      "inputs": [
        {
          "components": [
            {
              "internalType": "address",
              "name": "token0",
              "type": "address"
            },
            {
              "internalType": "address",
              "name": "token1",
              "type": "address"
            },
            {
              "internalType": "uint24",
              "name": "fee1",
              "type": "uint24"
            },
            {
              "internalType": "uint256",
              "name": "amount0",
              "type": "uint256"
            },
            {
              "internalType": "uint256",
              "name": "amount1",
              "type": "uint256"
            },
            {
              "internalType": "uint24",
              "name": "fee2",
              "type": "uint24"
            },
            {
              "internalType": "uint24",
              "name": "fee3",
              "type": "uint24"
            }
          ],
          "internalType": "struct PairFlash.FlashParams",
          "name": "params",
          "type": "tuple"
        }
      ],
      "name": "initFlash",
      "outputs": [],
      "stateMutability": "nonpayable",
      "type": "function"
    },
    {
      "inputs": [
        {
          "internalType": "uint256",
          "name": "fee0",
          "type": "uint256"
        },
        {
          "internalType": "uint256",
          "name": "fee1",
          "type": "uint256"
        },
        {
          "internalType": "bytes",
          "name": "data",
          "type": "bytes"
        }
      ],
      "name": "nexyraV2FlashCallback",
      "outputs": [],
      "stateMutability": "nonpayable",
      "type": "function"
    },
    {
      "inputs": [],
      "name": "refundETH",
      "outputs": [],
      "stateMutability": "payable",
      "type": "function"
    },
    {
      "inputs": [],
      "name": "swapRouter",
      "outputs": [
        {
          "internalType": "contract ISwapRouter",
          "name": "",
          "type": "address"
        }
      ],
      "stateMutability": "view",
      "type": "function"
    },
    {
      "inputs": [
        {
          "internalType": "address",
          "name": "token",
          "type": "address"
        },
        {
          "internalType": "uint256",
          "name": "amountMinimum",
          "type": "uint256"
        },
        {
          "internalType": "address",
          "name": "recipient",
          "type": "address"
        }
      ],
      "name": "sweepToken",
      "outputs": [],
      "stateMutability": "payable",
      "type": "function"
    },
    {
      "inputs": [
        {
          "internalType": "uint256",
          "name": "amountMinimum",
          "type": "uint256"
        },
        {
          "internalType": "address",
          "name": "recipient",
          "type": "address"
        }
      ],
      "name": "unwrapWETH",
      "outputs": [],
      "stateMutability": "payable",
      "type": "function"
    },
    {
      "stateMutability": "payable",
      "type": "receive"
    }
  ],
  "bytecode": "0x60e06040523480156200001157600080fd5b5060405162001a9838038062001a9883398101604081905262000034916200005c565b6001600160601b0319606092831b811660805290821b811660a05291901b1660c052620000c8565b60008060006060848603121562000071578283fd5b83516200007e81620000af565b60208501519093506200009181620000af565b6040850151909250620000a481620000af565b809150509250925092565b6001600160a01b0381168114620000c557600080fd5b50565b60805160601c60a05160601c60c05160601c61195f6200013960003980610420528061044d528061059d528061064b528061074a525080609c528061038952806108b152806109db5280610f1b5280610f7b5280610ffc52508061026752806103c0528061076e525061195f6000f3fe60806040526004361061007f5760003560e01c8063c31c9c071161004e578063c31c9c07146101a2578063c45a0155146101b7578063df2ab5bb146101cc578063e16d9ce5146101df5761012a565b806312210e8a1461012f5780632384463b14610137578063ad5c464814610157578063b30eeb85146101825761012a565b3661012a573373ffffffffffffffffffffffffffffffffffffffff7f0000000000000000000000000000000000000000000000000000000000000000161461012857604080517f08c379a000000000000000000000000000000000000000000000000000000000815260206004820152600860248201527f4e6f742057455448000000000000000000000000000000000000000000000000604482015290519081900360640190fd5b005b600080fd5b6101286101f2565b34801561014357600080fd5b50610128610152366004611624565b610204565b34801561016357600080fd5b5061016c610387565b6040516101799190611786565b60405180910390f35b34801561018e57600080fd5b5061012861019d366004611702565b6103ab565b3480156101ae57600080fd5b5061016c610748565b3480156101c357600080fd5b5061016c61076c565b6101286101da3660046114ed565b610790565b6101286101ed3660046116d7565b6108ad565b4715610202576102023347610a73565b565b60006040518060600160405280836000015173ffffffffffffffffffffffffffffffffffffffff168152602001836020015173ffffffffffffffffffffffffffffffffffffffff168152602001836040015162ffffff168152509050600061028c7f000000000000000000000000000000000000000000000000000000000000000083610bc1565b90508073ffffffffffffffffffffffffffffffffffffffff1663490e6cbc30856060015186608001516040518060c0016040528089606001518152602001896080015181526020013373ffffffffffffffffffffffffffffffffffffffff1681526020018881526020018960a0015162ffffff1681526020018960c0015162ffffff1681525060405160200161032291906118c0565b6040516020818303038152906040526040518563ffffffff1660e01b815260040161035094939291906117a7565b600060405180830381600087803b15801561036a57600080fd5b505af115801561037e573d6000803e3d6000fd5b50505050505050565b7f000000000000000000000000000000000000000000000000000000000000000081565b60006103b982840184611528565b90506103e97f00000000000000000000000000000000000000000000000000000000000000008260600151610cf7565b506060810151805160209091015182516000906104069089610d2d565b90506000610418856020015189610d2d565b9050610449837f00000000000000000000000000000000000000000000000000000000000000008760200151610d3d565b60007f000000000000000000000000000000000000000000000000000000000000000073ffffffffffffffffffffffffffffffffffffffff1663414bf3896040518061010001604052808773ffffffffffffffffffffffffffffffffffffffff1681526020018873ffffffffffffffffffffffffffffffffffffffff168152602001896080015162ffffff1681526020013073ffffffffffffffffffffffffffffffffffffffff16815260200142815260200189602001518152602001868152602001600073ffffffffffffffffffffffffffffffffffffffff168152506040518263ffffffff1660e01b81526004016105439190611844565b602060405180830381600087803b15801561055d57600080fd5b505af1158015610571573d6000803e3d6000fd5b505050506040513d601f19601f8201168201806040525081019061059591906116bf565b90506105c6857f00000000000000000000000000000000000000000000000000000000000000008860000151610d3d565b604080516101008101825273ffffffffffffffffffffffffffffffffffffffff8781168252868116602083015260a08981015162ffffff168385015230606084015242608084015289519083015260c08201859052600060e0830181905292517f414bf3890000000000000000000000000000000000000000000000000000000081527f00000000000000000000000000000000000000000000000000000000000000009091169163414bf389916106819190600401611844565b602060405180830381600087803b15801561069b57600080fd5b505af11580156106af573d6000803e3d6000fd5b505050506040513d601f19601f820116820180604052508101906106d391906116bf565b905083156106e7576106e786303387610f19565b82156106f9576106f985303386610f19565b8382111561071a576000848303905061071887308a6040015184610f19565b505b8281111561073b576000838203905061073986308a6040015184610f19565b505b5050505050505050505050565b7f000000000000000000000000000000000000000000000000000000000000000081565b7f000000000000000000000000000000000000000000000000000000000000000081565b60008373ffffffffffffffffffffffffffffffffffffffff166370a08231306040518263ffffffff1660e01b8152600401808273ffffffffffffffffffffffffffffffffffffffff16815260200191505060206040518083038186803b1580156107f957600080fd5b505afa15801561080d573d6000803e3d6000fd5b505050506040513d602081101561082357600080fd5b505190508281101561089657604080517f08c379a000000000000000000000000000000000000000000000000000000000815260206004820152601260248201527f496e73756666696369656e7420746f6b656e0000000000000000000000000000604482015290519081900360640190fd5b80156108a7576108a78483836110f7565b50505050565b60007f000000000000000000000000000000000000000000000000000000000000000073ffffffffffffffffffffffffffffffffffffffff166370a08231306040518263ffffffff1660e01b8152600401808273ffffffffffffffffffffffffffffffffffffffff16815260200191505060206040518083038186803b15801561093657600080fd5b505afa15801561094a573d6000803e3d6000fd5b505050506040513d602081101561096057600080fd5b50519050828110156109d357604080517f08c379a000000000000000000000000000000000000000000000000000000000815260206004820152601160248201527f496e73756666696369656e742057455448000000000000000000000000000000604482015290519081900360640190fd5b8015610a6e577f000000000000000000000000000000000000000000000000000000000000000073ffffffffffffffffffffffffffffffffffffffff16632e1a7d4d826040518263ffffffff1660e01b815260040180828152602001915050600060405180830381600087803b158015610a4c57600080fd5b505af1158015610a60573d6000803e3d6000fd5b50505050610a6e8282610a73565b505050565b6040805160008082526020820190925273ffffffffffffffffffffffffffffffffffffffff84169083906040518082805190602001908083835b60208310610aea57805182527fffffffffffffffffffffffffffffffffffffffffffffffffffffffffffffffe09092019160209182019101610aad565b6001836020036101000a03801982511681845116808217855250505050505090500191505060006040518083038185875af1925050503d8060008114610b4c576040519150601f19603f3d011682016040523d82523d6000602084013e610b51565b606091505b5050905080610a6e57604080517f08c379a000000000000000000000000000000000000000000000000000000000815260206004820152600360248201527f5354530000000000000000000000000000000000000000000000000000000000604482015290519081900360640190fd5b6000816020015173ffffffffffffffffffffffffffffffffffffffff16826000015173ffffffffffffffffffffffffffffffffffffffff1610610c0357600080fd5b508051602080830151604093840151845173ffffffffffffffffffffffffffffffffffffffff94851681850152939091168385015262ffffff166060808401919091528351808403820181526080840185528051908301207fff0000000000000000000000000000000000000000000000000000000000000060a085015294901b7fffffffffffffffffffffffffffffffffffffffff0000000000000000000000001660a183015260b58201939093527fc0440dfa9455e8780a3624fd7e14ce59b0691a63e08e8d3aaf54be39c3a7bb9a60d5808301919091528251808303909101815260f5909101909152805191012090565b6000610d038383610bc1565b90503373ffffffffffffffffffffffffffffffffffffffff821614610d2757600080fd5b92915050565b80820182811015610d2757600080fd5b6040805173ffffffffffffffffffffffffffffffffffffffff8481166024830152604480830185905283518084039091018152606490920183526020820180517bffffffffffffffffffffffffffffffffffffffffffffffffffffffff167f095ea7b3000000000000000000000000000000000000000000000000000000001781529251825160009485949389169392918291908083835b60208310610e1257805182527fffffffffffffffffffffffffffffffffffffffffffffffffffffffffffffffe09092019160209182019101610dd5565b6001836020036101000a0380198251168184511680821785525050505050509050019150506000604051808303816000865af19150503d8060008114610e74576040519150601f19603f3d011682016040523d82523d6000602084013e610e79565b606091505b5091509150818015610ea7575080511580610ea75750808060200190516020811015610ea457600080fd5b50515b610f1257604080517f08c379a000000000000000000000000000000000000000000000000000000000815260206004820152600260248201527f5341000000000000000000000000000000000000000000000000000000000000604482015290519081900360640190fd5b5050505050565b7f000000000000000000000000000000000000000000000000000000000000000073ffffffffffffffffffffffffffffffffffffffff168473ffffffffffffffffffffffffffffffffffffffff16148015610f745750804710155b156110bd577f000000000000000000000000000000000000000000000000000000000000000073ffffffffffffffffffffffffffffffffffffffff1663d0e30db0826040518263ffffffff1660e01b81526004016000604051808303818588803b158015610fe157600080fd5b505af1158015610ff5573d6000803e3d6000fd5b50505050507f000000000000000000000000000000000000000000000000000000000000000073ffffffffffffffffffffffffffffffffffffffff1663a9059cbb83836040518363ffffffff1660e01b8152600401808373ffffffffffffffffffffffffffffffffffffffff16815260200182815260200192505050602060405180830381600087803b15801561108b57600080fd5b505af115801561109f573d6000803e3d6000fd5b505050506040513d60208110156110b557600080fd5b506108a79050565b73ffffffffffffffffffffffffffffffffffffffff83163014156110eb576110e68483836110f7565b6108a7565b6108a7848484846112cc565b6040805173ffffffffffffffffffffffffffffffffffffffff8481166024830152604480830185905283518084039091018152606490920183526020820180517bffffffffffffffffffffffffffffffffffffffffffffffffffffffff167fa9059cbb000000000000000000000000000000000000000000000000000000001781529251825160009485949389169392918291908083835b602083106111cc57805182527fffffffffffffffffffffffffffffffffffffffffffffffffffffffffffffffe0909201916020918201910161118f565b6001836020036101000a0380198251168184511680821785525050505050509050019150506000604051808303816000865af19150503d806000811461122e576040519150601f19603f3d011682016040523d82523d6000602084013e611233565b606091505b5091509150818015611261575080511580611261575080806020019051602081101561125e57600080fd5b50515b610f1257604080517f08c379a000000000000000000000000000000000000000000000000000000000815260206004820152600260248201527f5354000000000000000000000000000000000000000000000000000000000000604482015290519081900360640190fd5b6040805173ffffffffffffffffffffffffffffffffffffffff85811660248301528481166044830152606480830185905283518084039091018152608490920183526020820180517bffffffffffffffffffffffffffffffffffffffffffffffffffffffff167f23b872dd00000000000000000000000000000000000000000000000000000000178152925182516000948594938a169392918291908083835b602083106113a957805182527fffffffffffffffffffffffffffffffffffffffffffffffffffffffffffffffe0909201916020918201910161136c565b6001836020036101000a0380198251168184511680821785525050505050509050019150506000604051808303816000865af19150503d806000811461140b576040519150601f19603f3d011682016040523d82523d6000602084013e611410565b606091505b509150915081801561143e57508051158061143e575080806020019051602081101561143b57600080fd5b50515b6114a957604080517f08c379a000000000000000000000000000000000000000000000000000000000815260206004820152600360248201527f5354460000000000000000000000000000000000000000000000000000000000604482015290519081900360640190fd5b505050505050565b803573ffffffffffffffffffffffffffffffffffffffff811681146114d557600080fd5b919050565b803562ffffff811681146114d557600080fd5b600080600060608486031215611501578283fd5b61150a846114b1565b92506020840135915061151f604085016114b1565b90509250925092565b600081830361010081121561153b578182fd5b6040805160c0810167ffffffffffffffff828210818311171561155a57fe5b81845286358352602087013560208401526115768488016114b1565b8484015260607fffffffffffffffffffffffffffffffffffffffffffffffffffffffffffffffa0860112156115a9578586fd5b8351945060608501915084821081831117156115c157fe5b5082526115d0606086016114b1565b83526115de608086016114b1565b60208401526115ef60a086016114da565b8284015282606082015261160560c086016114da565b608082015261161660e086016114da565b60a082015295945050505050565b600060e08284031215611635578081fd5b60405160e0810181811067ffffffffffffffff8211171561165257fe5b60405261165e836114b1565b815261166c602084016114b1565b602082015261167d604084016114da565b604082015260608301356060820152608083013560808201526116a260a084016114da565b60a08201526116b360c084016114da565b60c08201529392505050565b6000602082840312156116d0578081fd5b5051919050565b600080604083850312156116e9578182fd5b823591506116f9602084016114b1565b90509250929050565b60008060008060608587031215611717578081fd5b8435935060208501359250604085013567ffffffffffffffff8082111561173c578283fd5b818701915087601f83011261174f578283fd5b81358181111561175d578384fd5b88602082850101111561176e578384fd5b95989497505060200194505050565b62ffffff169052565b73ffffffffffffffffffffffffffffffffffffffff91909116815260200190565b600073ffffffffffffffffffffffffffffffffffffffff8616825260208581840152846040840152608060608401528351806080850152825b818110156117fc5785810183015185820160a0015282016117e0565b8181111561180d578360a083870101525b50601f017fffffffffffffffffffffffffffffffffffffffffffffffffffffffffffffffe0169290920160a0019695505050505050565b60006101008201905073ffffffffffffffffffffffffffffffffffffffff80845116835280602085015116602084015262ffffff60408501511660408401528060608501511660608401526080840151608084015260a084015160a084015260c084015160c08401528060e08501511660e08401525092915050565b6000610100820190508251825260208301516020830152604083015173ffffffffffffffffffffffffffffffffffffffff8082166040850152606085015191508082511660608501528060208301511660808501525062ffffff60408201511660a084015250608083015161193860c084018261177d565b5060a083015161194b60e084018261177d565b509291505056fea164736f6c6343000706000a",
  "linkReferences": {},
  "deployedLinkReferences": {}
}