{
  "_format": "hh-sol-artifact-1",
  "contractName": "NonfungibleTokenPositionDescriptor",
  "sourceName": "contracts/NonfungibleTokenPositionDescriptor.sol",
  "abi": [
    {
      "inputs": [
        {
          "internalType": "address",
          "name": "_WETH",
          "type": "address"
        },
        {
          "internalType": "bytes32",
          "name": "_nativeCurrencyLabelBytes",
          "type": "bytes32"
        }
      ],
      "stateMutability": "nonpayable",
      "type": "constructor"
    },
    {
      "inputs": [],
      "name": "WETH",
      "outputs": [
        {
          "internalType": "address",
          "name": "",
          "type": "address"
        }
      ],
      "stateMutability": "view",
      "type": "function"
    },
    {
      "inputs": [
        {
          "internalType": "address",
          "name": "token0",
          "type": "address"
        },
        {
          "internalType": "address",
          "name": "token1",
          "type": "address"
        }
      ],
      "name": "flipRatio",
      "outputs": [
        {
          "internalType": "bool",
          "name": "",
          "type": "bool"
        }
      ],
      "stateMutability": "view",
      "type": "function"
    },
    {
      "inputs": [],
      "name": "nativeCurrencyLabel",
      "outputs": [
        {
          "internalType": "string",
          "name": "",
          "type": "string"
        }
      ],
      "stateMutability": "view",
      "type": "function"
    },
    {
      "inputs": [],
      "name": "nativeCurrencyLabelBytes",
      "outputs": [
        {
          "internalType": "bytes32",
          "name": "",
          "type": "bytes32"
        }
      ],
      "stateMutability": "view",
      "type": "function"
    },
    {
      "inputs": [
        {
          "internalType": "address",
          "name": "token",
          "type": "address"
        }
      ],
      "name": "tokenRatioPriority",
      "outputs": [
        {
          "internalType": "int256",
          "name": "",
          "type": "int256"
        }
      ],
      "stateMutability": "view",
      "type": "function"
    },
    {
      "inputs": [
        {
          "internalType": "contract INonfungiblePositionManager",
          "name": "positionManager",
          "type": "address"
        },
        {
          "internalType": "uint256",
          "name": "tokenId",
          "type": "uint256"
        }
      ],
      "name": "tokenURI",
      "outputs": [
        {
          "internalType": "string",
          "name": "",
          "type": "string"
        }
      ],
      "stateMutability": "view",
      "type": "function"
    }
  ],
  "bytecode": "0x60c060405234801561001057600080fd5b5060405161148d38038061148d83398101604081905261002f9161004a565b60609190911b6001600160601b03191660805260a052610082565b6000806040838503121561005c578182fd5b82516001600160a01b0381168114610072578283fd5b6020939093015192949293505050565b60805160601c60a0516113cc6100c16000398061015552806101ad52806102615250806101095280610179528061051f528061057352506113cc6000f3fe608060405234801561001057600080fd5b50600436106100725760003560e01c8063b7af3cdc11610050578063b7af3cdc146100bd578063dee91a2c146100d2578063e9dc6375146100f257610072565b80637d4a868914610077578063a18246e2146100a0578063ad5c4648146100a8575b600080fd5b61008a610085366004610eed565b610105565b604051610097919061123d565b60405180910390f35b61008a610153565b6100b0610177565b604051610097919061121e565b6100c561019b565b6040516100979190611246565b6100e56100e0366004610f2c565b6102c1565b6040516100979190611232565b6100c5610100366004610f64565b6102df565b60007f00000000000000000000000000000000000000000000000000000000000000006001600160a01b0316826001600160a01b0316141561014a575060631961014e565b5060005b919050565b7f000000000000000000000000000000000000000000000000000000000000000081565b7f000000000000000000000000000000000000000000000000000000000000000081565b606060005b60208110801561020057507f000000000000000000000000000000000000000000000000000000000000000081602081106101d757fe5b1a60f81b7fff000000000000000000000000000000000000000000000000000000000000001615155b1561020d576001016101a0565b60008167ffffffffffffffff8111801561022657600080fd5b506040519080825280601f01601f191660200182016040528015610251576020820181803683370190505b50905060005b828110156102ba577f0000000000000000000000000000000000000000000000000000000000000000816020811061028b57fe5b1a60f81b82828151811061029b57fe5b60200101906001600160f81b031916908160001a905350600101610257565b5091505090565b60006102cc82610105565b6102d584610105565b1390505b92915050565b60606000806000806000876001600160a01b03166399fbab88886040518263ffffffff1660e01b8152600401610315919061123d565b6101806040518083038186803b15801561032e57600080fd5b505afa158015610342573d6000803e3d6000fd5b505050506040513d601f19601f8201168201806040525081019061036691906110e9565b50505050509650965096509650965050506000610424896001600160a01b031663c45a01556040518163ffffffff1660e01b815260040160206040518083038186803b1580156103b557600080fd5b505afa1580156103c9573d6000803e3d6000fd5b505050506040513d601f19601f820116820180604052508101906103ed9190610f10565b6040518060600160405280896001600160a01b03168152602001886001600160a01b031681526020018762ffffff168152506107ec565b9050600061043287876102c1565b9050600081156104425787610444565b865b9050600082156104545787610456565b885b90506000846001600160a01b0316633850c7bd6040518163ffffffff1660e01b815260040160e06040518083038186803b15801561049357600080fd5b505afa1580156104a7573d6000803e3d6000fd5b505050506040513d601f19601f820116820180604052508101906104cb9190611040565b505050505091505073__$cea9be979eee3d87fb124d6cbb244bb0b5$__63c49917d7604051806101c001604052808f8152602001866001600160a01b03168152602001856001600160a01b031681526020017f00000000000000000000000000000000000000000000000000000000000000006001600160a01b0316876001600160a01b0316146105645761055f876108e8565b61056c565b61056c61019b565b81526020017f00000000000000000000000000000000000000000000000000000000000000006001600160a01b0316866001600160a01b0316146105b8576105b3866108e8565b6105c0565b6105c061019b565b8152602001866001600160a01b031663313ce5676040518163ffffffff1660e01b815260040160206040518083038186803b1580156105fe57600080fd5b505afa158015610612573d6000803e3d6000fd5b505050506040513d601f19601f8201168201806040525081019061063691906110cf565b60ff168152602001856001600160a01b031663313ce5676040518163ffffffff1660e01b815260040160206040518083038186803b15801561067757600080fd5b505afa15801561068b573d6000803e3d6000fd5b505050506040513d601f19601f820116820180604052508101906106af91906110cf565b60ff16815260200187151581526020018a60020b81526020018960020b81526020018460020b8152602001886001600160a01b031663d0c93a7c6040518163ffffffff1660e01b815260040160206040518083038186803b15801561071357600080fd5b505afa158015610727573d6000803e3d6000fd5b505050506040513d601f19601f8201168201806040525081019061074b9190610f8f565b60020b81526020018b62ffffff168152602001886001600160a01b03168152506040518263ffffffff1660e01b81526004016107879190611259565b60006040518083038186803b15801561079f57600080fd5b505af41580156107b3573d6000803e3d6000fd5b505050506040513d6000823e601f3d908101601f191682016040526107db9190810190610fa9565b9d9c50505050505050505050505050565b600081602001516001600160a01b031682600001516001600160a01b03161061081457600080fd5b50805160208083015160409384015184516001600160a01b0394851681850152939091168385015262ffffff166060808401919091528351808403820181526080840185528051908301207fff0000000000000000000000000000000000000000000000000000000000000060a085015294901b6bffffffffffffffffffffffff191660a183015260b58201939093527fc0440dfa9455e8780a3624fd7e14ce59b0691a63e08e8d3aaf54be39c3a7bb9a60d5808301919091528251808303909101815260f5909101909152805191012090565b60606000610916837f95d89b4100000000000000000000000000000000000000000000000000000000610933565b90508051600014156102d95761092b83610b88565b91505061014e565b60408051600481526024810182526020810180517bffffffffffffffffffffffffffffffffffffffffffffffffffffffff167fffffffff0000000000000000000000000000000000000000000000000000000085161781529151815160609360009384936001600160a01b03891693919290918291908083835b602083106109cc5780518252601f1990920191602091820191016109ad565b6001836020036101000a038019825116818451168082178552505050505050905001915050600060405180830381855afa9150503d8060008114610a2c576040519150601f19603f3d011682016040523d82523d6000602084013e610a31565b606091505b5091509150811580610a4257508051155b15610a605760405180602001604052806000815250925050506102d9565b805160201415610a98576000818060200190516020811015610a8157600080fd5b50519050610a8e81610b95565b93505050506102d9565b604081511115610b7057808060200190516020811015610ab757600080fd5b8101908080516040519392919084640100000000821115610ad757600080fd5b908301906020820185811115610aec57600080fd5b8251640100000000811182820188101715610b0657600080fd5b82525081516020918201929091019080838360005b83811015610b33578181015183820152602001610b1b565b50505050905090810190601f168015610b605780820380516001836020036101000a031916815260200191505b50604052505050925050506102d9565b50506040805160208101909152600081529392505050565b60606102d9826006610cd5565b604080516020808252818301909252606091600091906020820181803683370190505090506000805b6020811015610c37576000858260208110610bd557fe5b1a60f81b90507fff00000000000000000000000000000000000000000000000000000000000000811615610c2e5780848481518110610c1057fe5b60200101906001600160f81b031916908160001a9053506001909201915b50600101610bbe565b5060008167ffffffffffffffff81118015610c5157600080fd5b506040519080825280601f01601f191660200182016040528015610c7c576020820181803683370190505b50905060005b82811015610ccc57838181518110610c9657fe5b602001015160f81c60f81b828281518110610cad57fe5b60200101906001600160f81b031916908160001a905350600101610c82565b50949350505050565b606060028206158015610ce85750600082115b8015610cf5575060288211155b610d6057604080517f08c379a000000000000000000000000000000000000000000000000000000000815260206004820152601e60248201527f41646472657373537472696e675574696c3a20494e56414c49445f4c454e0000604482015290519081900360640190fd5b60008267ffffffffffffffff81118015610d7957600080fd5b506040519080825280601f01601f191660200182016040528015610da4576020820181803683370190505b5090506001600160a01b03841660005b60028504811015610e4857600860138290030282901c600f600482901c1660f082168203610de182610e52565b868560020281518110610df057fe5b60200101906001600160f81b031916908160001a905350610e1081610e52565b868560020260010181518110610e2257fe5b60200101906001600160f81b031916908160001a9053505060019092019150610db49050565b5090949350505050565b6000600a8260ff161015610e6d57506030810160f81b61014e565b506037810160f81b61014e565b805161014e816113a7565b8051600281900b811461014e57600080fd5b80516fffffffffffffffffffffffffffffffff8116811461014e57600080fd5b805161ffff8116811461014e57600080fd5b805162ffffff8116811461014e57600080fd5b805160ff8116811461014e57600080fd5b600060208284031215610efe578081fd5b8135610f09816113a7565b9392505050565b600060208284031215610f21578081fd5b8151610f09816113a7565b60008060408385031215610f3e578081fd5b8235610f49816113a7565b91506020830135610f59816113a7565b809150509250929050565b60008060408385031215610f76578182fd5b8235610f81816113a7565b946020939093013593505050565b600060208284031215610fa0578081fd5b610f0982610e85565b600060208284031215610fba578081fd5b815167ffffffffffffffff80821115610fd1578283fd5b818401915084601f830112610fe4578283fd5b815181811115610ff057fe5b604051601f8201601f19168101602001838111828210171561100e57fe5b604052818152838201602001871015611025578485fd5b611036826020830160208701611377565b9695505050505050565b600080600080600080600060e0888a03121561105a578283fd5b8751611065816113a7565b965061107360208901610e85565b955061108160408901610eb7565b945061108f60608901610eb7565b935061109d60808901610eb7565b92506110ab60a08901610edc565b915060c088015180151581146110bf578182fd5b8091505092959891949750929550565b6000602082840312156110e0578081fd5b610f0982610edc565b6000806000806000806000806000806000806101808d8f03121561110b578485fd5b8c516bffffffffffffffffffffffff81168114611126578586fd5b9b5061113460208e01610e7a565b9a5061114260408e01610e7a565b995061115060608e01610e7a565b985061115e60808e01610ec9565b975061116c60a08e01610e85565b965061117a60c08e01610e85565b955061118860e08e01610e97565b94506101008d015193506101208d015192506111a76101408e01610e97565b91506111b66101608e01610e97565b90509295989b509295989b509295989b565b6001600160a01b03169052565b15159052565b60020b9052565b600081518084526111fa816020860160208601611377565b601f01601f19169290920160200192915050565b62ffffff169052565b60ff169052565b6001600160a01b0391909116815260200190565b901515815260200190565b90815260200190565b600060208252610f0960208301846111e2565b60006020825282516020830152602083015161127860408401826111c8565b50604083015161128b60608401826111c8565b5060608301516101c08060808501526112a86101e08501836111e2565b91506080850151601f198584030160a08601526112c583826111e2565b92505060a08501516112da60c0860182611217565b5060c08501516112ed60e0860182611217565b5060e0850151610100611302818701836111d5565b8601519050610120611316868201836111db565b860151905061014061132a868201836111db565b860151905061016061133e868201836111db565b8601519050610180611352868201836111db565b86015190506101a06113668682018361120e565b8601519050610e48858301826111c8565b60005b8381101561139257818101518382015260200161137a565b838111156113a1576000848401525b50505050565b6001600160a01b03811681146113bc57600080fd5b5056fea164736f6c6343000706000a",
  "linkReferences": {
    "contracts/libraries/NFTDescriptor.sol": {
      "NFTDescriptor": [
        {
          "length": 20,
          "start": 1430
        }
      ]
    }
  },
  "deployedLinkReferences": {
    "contracts/libraries/NFTDescriptor.sol": {
      "NFTDescriptor": [
        {
          "length": 20,
          "start": 1237
        }
      ]
    }
  }
}